:100000000C94C4030C940B040C940B040C940B047C
:100010000C940B040C940B040C940B040C940B0424
:100020000C940B040C940B040C9456150C941215A0
:100030000C9465290C940B040C940B040C940B0485
:100040000C940B040C940B040C940B040C940B04F4
:100050000C940B040C949A100C940B040C940B0449
:100060000C940B040C940B040C940B040C940B04D4
:100070000C940B040C940B040C940B040C940B04C4
:100080000C940B040C940B040C940B040C940B04B4
:100090000C940B040C940B040C940B040C940B04A4
:1000A0000C940B040C940B040C940B040501090232
:1000B000A10185020901A100050919012905150001
:1000C00025019505750181029501750381010501E1
:1000D000093009311581257F950275088106093897
:1000E0001581257F950175088106050C0A380215D2
:1000F00081257F950175088106C0C005010980A191
:1001000001850319012AB700150126B7009501756D
:10011000108100C0050C0901A101850419012AA064
:1001200002150126A002950175108100C00660FF2E
:100130000961A1010962150026FF0095207508815B
:10014000020963150026FF00952075089102C0057D
:10015000010906A101050719E029E7150025019508
:1001600008750181029501750881010507190029AB
:10017000FF150026FF009506750881000508190186
:100180002905950575019102950175039101C0003E
:10019000000000000000000000000000000000005F
:1001A000000000000000000000000000000000004F
:1001B0000000007E0F00D4FFFFFFC70000007800A2
:1001C000000000000000002A2B28000000000000B2
:1001D0000000000000000000000029000000002CCA
:1001E0001E3420212224342627252E362D37382769
:1001F0001E1F202122232425263333362E37381F75
:100200000405060708090A0B0C0D0E0F1011121336
:100210001415161718191A1B1C1D2F3130232D35D4
:100220000405060708090A0B0C0D0E0F1011121316
:100230001415161718191A1B1C1D2F3130354CFDBB
:10024000377A585A000004E6D6B446020021011657
:10025000000000742FE5A3E0043501475D003D88F0
:1002600089C65436C3174FE4D217760F9905014754
:10027000BA918753584B68F5D33D9CCC07B675A906
:100280001B370B368F25CE01D8043C6F4C763B0BC9
:10029000E8A5C096915134D1B73A67332A9D0A68D0
:1002A000DF6A1A207A2FFB91D847BC9AAF062D61DE
:1002B0007F484E929CCF184B3131D775E936F54DBA
:1002C000A907C12BB339B8AD24758A646B61ABAA99
:1002D000D759CA8538FDF2026A4144DB6DB73263F3
:1002E000F6600A03756A11115DEB16D0C6A482CBC5
:1002F00058BE7F4E237D0908EBDDACC31E798FB756
:10030000F705ED367725F193730A6FC42439A9E315
:1003100026C1EF26491FA514CA005D0ADA6AFE2C21
:1003200078BAB814270EFEDC28E07DA59C7E2BE46D
:1003300071DC17BF44D970E30969C532DD2B4E4C1F
:100340002EF82A35F46ABD90939D3816132EC103FA
:100350004E48ED899C5D6F58BD2A2610DB29B24AB4
:10036000B439F4B7DE37B59257C27B503968F649D5
:10037000AD325BAA48DEF0F436BCB719A85E447A09
:1003800034B77D68012FBFC3BD9C4258BEEA6D40A3
:100390007CD455BBB58BBEDA8694D16E45A40AE4F5
:1003A00007C6A1A800000079472F730F1629E9009E
:1003B00001E302B60800006FAE4F1FB1C467FB0235
:1003C0000000000004595A14001A00080015001714
:1003D00000000000000000000000000400160007FC
:1003E0000009000A00000000000000000000001DDD
:1003F000621B00060019000500000000000000005C
:100400000000000000000029002C002B000000006C
:10041000000000000000001C0018000C0012001377
:1004200000000000000000000000000B000D000EA6
:10043000000F003300000000000000000000001169
:100440000010003600370038720000000000000085
:1004500000000028002A00E6000000000000000064
:100460000000000000000001000100010001000187
:100470000000000000000000000000010001000179
:100480000001000100000000000000000000000169
:100490000001000100010001000000000000000058
:1004A0000000000000000001000100010000000049
:1004B0000000000000000001000100010001000137
:1004C0000000000000000000000000010001000129
:1004D0000001000100000000000000000000000119
:1004E0000001000100010001000000000000000008
:1004F00000000001000100010000000000000000F9
:1005000000000000000000010001000100010001E6
:1005100000000000000000000000000100010001D8
:1005200000010001000000000000000000000001C8
:1005300000010001000100010000000000000000B7
:1005400000000000000000010001000100000000A8
:100550000000000000000001000100010001000196
:100560000000000000000000000000010001000188
:100570000001000100000000000000000000000178
:100580000001000100010001000000000000000067
:100590000000000100010001000000000000000058
:1005A0000000000000000001000100010001000146
:1005B0000000000000000000000000010001000138
:1005C0000001000100000000000000000000000128
:1005D0000001000100010001000000000000000017
:1005E0000000000000000001000100010000000008
:1005F00000000000000000010001000100010001F6
:1006000000000000000000000000000100010001E7
:1006100000010001000000000000000000000001D7
:1006200000010001000100010000000000000000C6
:1006300000000001000100010000000000000000B7
:1006400000000000000000010001001B0400000287
:1006500000020017040000030001001C0400000455
:1006600000020001048306050001001D04000006CD
:100670000002000304000007000200190400000843
:100680000001001E0400000900020005045E060AC5
:1006900000020007045E060B00020009045E060C5F
:1006A0000002000B045E060D0002000D045E060E43
:1006B0000002000F045E060F00020011045E061027
:1006C00000020013045E061100020015045E06120B
:1006D0000002001F040000130002002104000009B2
:1006E000025B00030100A0FA0904000001030101FC
:1006F00000092111010001224000070581030800C3
:100700000A0904010002030000000921110100018F
:1007100022220007058203200001070503032000B1
:100720000109040200010300000009211101000178
:100730002281000705840320000A12010002000044
:100740000008EDFE58460200010203011C0376007A
:10075000690061006C003A006600360034006300F6
:1007600032006200330063000000080333007700AA
:10077000360000000E0377006500740065006F000E
:10078000720000000403090411241FBECFEFDAE059
:10079000DEBFCDBF04B603FE27C080914C0490910C
:1007A0004D04A0914E04B0914F048730904BA74068
:1007B000B04BD1F410924C0410924D0410924E04A0
:1007C00010924F0414BE84B7877F84BF0FB6F8948D
:1007D000A89580916000886180936000109260000D
:1007E0000FBEE0E0F8E3099511E0A0E0B1E0E4E03D
:1007F000F4E602C005900D92AC36B107D9F724E0BB
:10080000ACE6B1E001C01D92AC34B207E1F70E9442
:1008100088290C94CE310C940000E8EDF0E0808142
:100820008E7F80831092E2001092DA001092E10035
:10083000A0EEB0E08C9181608C9380818F77808373
:1008400019BCA7EDB0E08C918E7F8C9380818F7E58
:1008500080831092340408952091E4003091E500E3
:1008600095E6A9012091EC00822F817020FF06C03F
:100870008091E80080FF06C080E008952091E800A4
:1008800022FD1AC080914A04882389F0853089F0BE
:100890008091EB0085FD0FC02091E4003091E500D0
:1008A00042175307F9F29150E1F684E0089582E08F
:1008B000089583E0089581E00895EF92FF920F93E9
:1008C0001F93CF937C018B010E942C04C82F8111B0
:1008D00017C08091E80085FD0BC08091E8008E77FD
:1008E0008093E8000E942C04882399F3C82F08C045
:1008F000F70181917F018093F1000150110949F7BF
:100900008C2FCF911F910F91FF90EF900895CF936F
:10091000FC0180914A04843001F5C091E900CF7058
:100920002091EC00922F917020FD90E8C92B82E07D
:100930008093E9008091E80080FF0CC050E040E027
:1009400060E270E0CF010E945D048091E8008E7744
:100950008093E800CF70C093E900CF910895809113
:10096000420487FF13C08091E80082FF06C0809197
:10097000E8008B778093E80004C080914A048111DD
:10098000F2CF089580914A048823D9F38091E8003A
:1009900080FFF8CF8091E8008E77ECCF982F90936E
:1009A000E900242F762F50E0891731F07091EC0088
:1009B0002091ED005091F00021FD07C09F5F97301E
:1009C00071F78093E90081E008953091EB003E7F5C
:1009D0003093EB003091ED003D7F3093ED0030918E
:1009E000EB0031603093EB007093EC002093ED004E
:1009F0005093F0002091EE0027FDE0CF80E00895B5
:100A0000CF92DF92EF92FF920F931F93CF93DF93DA
:100A1000C8EDD0E088818F7E8883E7EDF0E08081AB
:100A20008160808384E082BF81E080933404888188
:100A30008E7F888302EE10E0F80110821092DA00B7
:100A400081EEC82ED12CF601108288818F778883A1
:100A500088818068888388818F7D888319BC109203
:100A60004A04109241041092400410923F0490EE08
:100A7000E92EF12CF70180818B7F80838881816052
:100A8000888342E060E080E00E94CE04F60180812D
:100A90008E7F8083F801808181608083808188607F
:100AA0008083F70180818E7F808388818061888345
:100AB000DF91CF911F910F91FF90EF90DF90CF903A
:100AC0000895FC0180914804909149048617970786
:100AD000A0F06115710529F49091E8009E7790933C
:100AE000E80090E06115710551F4911108C0809102
:100AF000E80082FF34C080E00895BC01F2CF80910D
:100B00004A048823C1F18530C1F18091E80083FD5A
:100B100030C08091E80082FDEACF8091E80080FF3C
:100B2000E1CF8091F3002091F200382F611571051B
:100B300019F02830310558F091E02830310509F0DE
:100B400090E02091E8002E772093E800CBCF8191B0
:100B50008093F100615071092F5F3F4FE7CF809183
:100B60004A04882341F0853041F08091E80083FFFA
:100B7000BECF81E0089582E0089583E008958091DA
:100B8000360408959C01FC0132969FEF80E041916C
:100B9000461751F09F3F19F4411101C0982F8F5F04
:100BA0008630A9F79F3F09F40895290F311D97FD5D
:100BB0003A95F9016283089520912B0430912C0419
:100BC0002817390771F090932C0480932B04E0913F
:100BD0002904F0912A04309721F00084F185E02D5A
:100BE0000994089520912704309128042817390783
:100BF00071F09093280480932704E0912904F091E8
:100C00002A04309721F00680F781E02D0994089599
:100C1000E0912904F0912A04309721F00190F081AD
:100C2000E02D099480E00895452B39F0682381E098
:100C30006F3F09F080E08170089581E0FCCFDC0116
:100C40006091490380914A03962F891301C008954A
:100C5000292F30E0F901EE0FFF1FEF5BFC4F4081C1
:100C600051814A175B07A1F487E08A9FA0018B9FFF
:100C7000500D1124475F5C4F81E0FA018483961385
:100C8000E6CF2F5F3F4F237033272093490308950A
:100C90002F5F3F4F922F9370D8CF1092A6021092E1
:100CA000A502E9E0F3E08581811102C01482168279
:100CB000379683E0E134F807B1F70895E1E0F4E016
:100CC000848195812AE030E0B9010E942631609349
:100CD000140186818093130182858093120184859B
:100CE0008093110186859785B9010E942631609312
:100CF0001001808980930F01828980930E0184897D
:100D000080930D01089580910104909102049093C5
:100D1000170180931601089590913602803F59F48F
:100D20008091370287FF0DC01092370291110BC0DE
:100D300010922E0208C0813F81F48091370218166C
:100D40009CF3992381F08091380290913902892B8C
:100D500009F064C010922D020895823F49F497FF74
:100D6000F0CF10923602809137028111ECCFE0CFA4
:100D7000833F19F41916ACF3E4CF20913802893F70
:100D800029F41216F4F610923802DBCF8A3F19F4D8
:100D900027FFD7CFF8CF209139028B3F29F427FFC7
:100DA000D0CF10923902CDCF8C3F19F41216CCF36C
:100DB000C8CF843F31F4809135028E7F8093350215
:100DC000C0CF853F21F4809135028D7FF7CF863FDC
:100DD00021F4809135028B7FF1CF873F21F4809100
:100DE0003502877FEBCF883F21F4809135028F7EDB
:100DF000E5CF8D3F31F480912F028E7F80932F02BB
:100E0000A0CF8E3F21F480912F028D7FF7CF8F3FAF
:100E100009F097CF80912F028B7FF0CF08958091BA
:100E20002F0280FF0CC060910E0170E075956795F0
:100E3000759567956115710549F1862F089581FFB4
:100E400006C060910E0170E075956795F3CF6091D3
:100E50000E0182FD0BC090912D029923A1F06091AB
:100E60000D0180910E01961738F0682F70E0603800
:100E7000710500F38FE70895899FC001112470E088
:100E80000E943A31F4CF61E070E0D7CF81E008955D
:100E900080912F026091090470910A0480FF16C0AE
:100EA00020911201269FC001279F900D1124BC01A3
:100EB00076956795769567956038710508F043C01B
:100EC0006115710509F441C0862F089581FF0BC09B
:100ED00020911201269FC001279F900D1124BC0173
:100EE00076956795E9CF82FF09C0809112019B0139
:100EF000829FB001839F700D1124DECF20912E02BE
:100F00002223D1F29091110180911201482F50E0DB
:100F1000291748F0CB01849FB001859F700D949FE5
:100F2000700D1124C9CF289F90011124269FA00184
:100F3000279F500D369F500D1124692F70E0CA0174
:100F40000E942631B9CF8FE7089581E00895803F50
:100F500031F40E9448078195809337020895813FBC
:100F600019F40E944807F8CF823F31F40E944807E5
:100F70008195809336020895833F19F40E944807B3
:100F8000F8CF893F29F40E940F0780933802089513
:100F90008A3F21F40E940F078195F7CF8B3F31F4F0
:100FA0000E940F0781958093390208958C3F19F4B0
:100FB0000E940F07F8CF843F31F4809135028160A1
:100FC000809335020895853F21F480913502826037
:100FD000F7CF863F21F4809135028460F1CF873FBF
:100FE00021F4809135028860EBCF883F21F4809115
:100FF00035028061E5CF8D3F31F480912F02816011
:1010000080932F0208958E3F21F480912F028260F9
:10101000F7CF8F3FB9F780912F028460F1CF80E046
:1010200008959091F10192FF06C0282F2871283071
:10103000F9F4877F846093FF06C0282F2871283138
:10104000F1F4877E84612091F20120FF06C0382FE1
:1010500038713830D9F4877F816021FF06C0282F8E
:1010600028712831D1F4877E816194FD877E0895AF
:10107000282F24712430F9F68B7F8860DCCF282F4D
:101080002471243101F78B7E8861DDCF382F3171D7
:10109000313019F78E7F8860E0CF282F2171213100
:1010A00021F78E7E8861E1CFCF93DF93EC01823808
:1010B0009105A9F1D8F58133910509F496C048F559
:1010C0008932910509F48AC08A9709F495C0C1153F
:1010D00021E5D20708F0BCC0C11530E5D30708F000
:1010E00014C1C83ED10508F09CC0C03ED10560F5D2
:1010F000C83AD10508F087C0C53AD10508F0FDC04F
:10110000C130D10509F12097F9F0C430D105E0F4E0
:1011100040C08533910509F45AC0C997C1F6809142
:10112000F101837089F0C0EED0E00EC0833E9105DE
:1011300099F170F4803E910501F1823E910539F6F6
:101140008091F10182FD21C0CE01DF91CF91089500
:10115000863E910561F1873E910571F1843E9105CE
:1011600009F0B5CF8091F20181FFEECF8091F101BE
:10117000C7EED0E084FD0DC0E7CF8091F10180FD86
:1011800012C19091F20190FFDFCFC3EED0E084FF57
:10119000DBCFD0E0C0E0D8CF8091F10182FD06C165
:1011A0009091F20190FDBFCF84FFCECFF2CF80911E
:1011B000F10183FDDDCFC8CF8091F10183FDF9C03E
:1011C0009091F20191FFF0CFC4EED0E0BDCF8091BD
:1011D000F10185FFB9CFC9E2D0E0B6CF8091F1012E
:1011E00085FFB2CFC5E3D0E0AFCF8091F10186FF9C
:1011F000ABCFCAE2D0E0A8CF8091F10186FFA4CFA7
:10120000C1E3D0E0A1CFCF3BD10518F6C85AD0E05A
:10121000CC0FDD1FC25DDE4F0990D881C02DD46494
:1012200093CFC11540E2D40758F4C11581E0D80727
:1012300008F08ACFC03FD10508F4ABCFD06584CF8A
:10124000C11590E4D90708F4A4CFDF70D06A7CCF31
:10125000C11525E5D20700F5C11534E5D30708F01F
:101260008AC0C11543E5D40708F071C0C11582E5F5
:10127000D80708F467C0CE018370992721E030E0D9
:1012800002C0220F331F8A95E2F7C695C69580E209
:10129000C89FE001112452C0C11599E5D907A8F4EF
:1012A000C11528E5D20708F06BC0C11536E5D30794
:1012B00008F06FCF8C2F0E941108C82FD0E0DC2FD0
:1012C000CC27CC27DF71D0623FCFC1154AE5D407C8
:1012D00008F45BC0CE0190568115904208F059CFBA
:1012E0008D2F8F710E94110890E0982F88278827F2
:1012F0009F719C012C2BE901E6CFC55AD0E0C55D5A
:10130000DE4FC881D0E0D0641FCFCE01E4E09695D7
:101310008795EA95E1F783702C2F26952695237003
:1013200040E2249F90011124382B8C2F8370C1E060
:10133000D0E002C0CC0FDD1F8A95E2F7C22BD32B81
:10134000DC6802CFDC2FCC27C16FD06AFDCECE0186
:101350008370992721E030E002C0220F331F8A9565
:10136000E2F7C695C69590E2C99FE0011124C22B11
:10137000D32BDA68E9CEDC2FCC27C46FD06AE4CE59
:10138000DC2FCC27C06FD06ADFCE8C2F8F700E94ED
:10139000110834E0D695C7953A95E1F7CF709C2FA8
:1013A000EC01D069D1CEC9E3D0E0CECEC2EED0E020
:1013B000CBCEC6EED0E0C8CE8091EB01882331F0D1
:1013C0001092EB011092EA011092E90108958095C4
:1013D0009091000498239093000408958095909133
:1013E000FF0398239093FF0308951092E701109252
:1013F000E6011092E50108958091E40181111092B7
:10140000E40108952091E3019091A201291302C003
:1014100080E0089530E0F90153E0EE0FFF1F5A9588
:10142000E1F7ED55FE4F5181561306C05081581318
:1014300003C05281541304C02F5F3F4F2770E6CF83
:1014400081E008958091E3019091A201981301C079
:1014500008958F5F8770FACF9E3F49F1E82F2AE009
:10146000929FE00D11249E2F9770E695E695E695E4
:1014700083E0E89FF0011124E458FE4F50E040E083
:1014800080E0219130E0092E02C0369527950A941C
:10149000E2F721703327042E01C0220F0A94EAF7E5
:1014A000822B4F5F5F4F4330510559F7089580E01D
:1014B00008959E3F69F1E82F2AE0929FE00D1124E4
:1014C0008E2F877041E001C0440F8A95EAF7E695B8
:1014D000E695E69583E0E89FF0011124E458FE4F7D
:1014E00030E020E070E05191DF011197CB01022E36
:1014F00002C0969587950A94E2F7817081958527B9
:10150000842385278C932F5F3F4F2330310559F774
:101510000895E92FE295EF70E250EE3070F4F0E0BC
:10152000E053FE4C0C944E31803F19F020F4883E7D
:1015300020F481E00895843FE1F380E00895883E3F
:10154000C0F3813FD1F7F5CF93FB882780F9089549
:101550009C013A9521153F4150F5FC01EE27F170B1
:10156000BC0166277270AC01442754709C0122278D
:10157000387094FF0EC080E1EF2B09F480E0672BF8
:1015800009F08062452B09F08064232B89F0806884
:10159000089581E0EF2B09F480E0672B09F0826069
:1015A000452B09F08460232B19F08860089580E0B2
:1015B00008950F931F93CF93DF9300D000D0CDB742
:1015C000DEB780911A0190911B01A0911C01B0918E
:1015D0001D0189839A83AB83BC83DE0111969E0132
:1015E0002B5F3F4F41E050E08D91E82FE295EF7087
:1015F000F0E061A18F708A0102C0000F111F8A956F
:10160000E2F7C8018095962F982391A392A1982381
:1016100092A392A1892382A32A173B0729F70F904F
:101620000F900F900F90DF91CF911F910F91089520
:1016300090914A04943029F58093310470933304D7
:10164000609332049093E9008FEF9091E80081500D
:1016500095FD06C095ED9A95F1F700008111F5CF43
:101660008091E80085FF0DC050E040E063E070E04D
:1016700081E394E00E945D048091E8008E7780937E
:10168000E8000895BC0184E00C94180BBC0183E0D1
:101690000C94180B9C0184E08093E9009FEF8091EB
:1016A000E800915085FD06C085ED8A95F1F70000B0
:1016B0009111F5CF8091E80085FF0CC050E040E02B
:1016C00066E070E0C9010E945D048091E8008E77B9
:1016D0008093E8000895CF93DF93EC0181E080933D
:1016E000E9008FEF9091E800815095FD06C095EDDF
:1016F0009A95F1F700008111F5CF8091E80085FF00
:1017000014C050E040E068E070E0CE010E945D044B
:101710008091E8008E778093E80088E0FE01A7E3DF
:10172000B4E001900D928A95E1F7DF91CF91089591
:1017300081E08093E00080E28093D8001092C9009D
:101740008FE19EE40197F1F700C0000087E090EB85
:10175000DC0180934C0490934D04A0934E04B0930D
:101760004F0488E19CE00FB6F894A8958093600040
:101770000FBE90936000FFCF019708F40895EFE942
:10178000FFE03197F1F700C00000F6CF0F931F93F1
:10179000CF93DF9301E014E0C7EAD2E0CE010E94CC
:1017A0008431F80181938F012196C93CF2E0DF0773
:1017B000A9F7CDE4D6E0FE0185919491009711F050
:1017C000FC0109952896F6E0C53EDF07A1F7DF91F9
:1017D000CF911F910F9108950F931F93CF93DF9394
:1017E000843030F5683020F54A3010F5C42FD0E051
:1017F000CC0FDD1F24E1629FC00DD11D112430EA02
:10180000839FC00DD11D1124CE0187960E94843183
:10181000082F10E0102F0027CE0188960E948431F7
:101820009801282BC901DF91CF911F910F91089545
:1018300090E080E0F8CF462F2091A0023091A102E5
:10184000232B91F47E3F39F46E3F71F480919E0218
:1018500090919F020895843038F4783028F46A30EB
:1018600018F4672F0C94EC0B90E080E00895CF9271
:10187000DF92FF920F931F93CF93DF936C01009140
:101880004B048091EC01082BC7E0D0E010E0FC2E67
:10189000C8010C2E02C0959587950A94E2F780FD49
:1018A0000CC02197A0F7F12C8F2DDF91CF911F91C4
:1018B0000F91FF90DF90CF900895B6018C2F0E947A
:1018C0001B0C0E945408019761F3EECFCF93DF9376
:1018D000EC010E94370CBE010E941B0CDF91CF91DE
:1018E0000C945408FC0186819781009721F00E9496
:1018F00054080C94890A808191810E94660CF9CF6A
:101900001F93CF93DF9300D000D00F92CDB7DEB7F7
:1019100049835A8389819A816623B9F02223A9F0E9
:101920000E94370C182F682F89819A810E94590ACA
:1019300069817A81812F0F900F900F900F900F90F7
:10194000DF91CF911F910C941B0C0E942C0A182F31
:10195000EFCFFC01262F86819781009739F44081D3
:1019600051816281738184810C94800C089583E29B
:1019700090E00E948431873289F484E290E00E94F2
:101980008431853859F485E290E00E94843191E0F9
:10199000893D09F090E0892F8170089580E0FCCFA7
:1019A000CF9384E090E00E948431C82F82E290E0DF
:1019B0000E948431982F8C2FCF9108950F931F93FD
:1019C000CF93DF9301E014E0C7EAD2E0CE010E949A
:1019D0008431F80161918F01681719F0CE010E94DE
:1019E00092312196C93CF2E0DF0781F7DF91CF9178
:1019F0001F910F910895E1E0F4E0128E138E8FEAAB
:101A000090E09183808385E0848F88E893E19383DD
:101A100082834CE251E05583448322E330E03783F4
:101A2000268385E090E0918780878AE090E0938725
:101A3000828764E170E0758764875787468744E64C
:101A400050E0518B408B48E050E0538B428B48E292
:101A500050E0558B448B378B268B28EC30E0318F50
:101A6000208F158E978F868F80E590E091A380A3BD
:101A70000E94DE0C0C94C60BCF93DF93C9E6D3E033
:101A800060E0CE010E9492312196C11584E0D80712
:101A9000B9F7DF91CF9108950F931F93CF93DF9301
:101AA0008901843048F5683038F54A3028F5211529
:101AB0003C4531F420919C0230919D02232BE1F0B2
:101AC000C42FD0E0CC0FDD1F94E1699FC00DD11D64
:101AD000112490EA899FC00DD11D1124612FCE01E0
:101AE00087960E949231602FCE018896DF91CF9128
:101AF0001F910F910C949231DF91CF911F910F9113
:101B00000895CF93C82F6FEF811167E283E290E0D1
:101B10000E9492316FEFC11165E884E290E00E946B
:101B200092316FEFC11169ED85E290E0CF910C9495
:101B30009231CF93C091F201C2FB992790F9981787
:101B400081F080FBC2F9C093F2016091F10184E061
:101B500090E00E9492316C2F82E290E0CF910C9441
:101B60009231CF9108957F928F929F92AF92BF92C0
:101B7000CF92DF92EF92FF920F931F93CF93DF9359
:101B8000CDB7DEB764970FB6F894DEBF0FBECDBFFA
:101B9000A0909C02B0909D0281E090E090939D0205
:101BA00080939C0287ECC82E83E0D82E00E076015B
:101BB00010E015C0F40125913491472D612F802F3D
:101BC0000E944C0D82E0880E911C7394EAE07E1214
:101BD000F1CFF4E1EF0EF11C1F5F183019F047014F
:101BE000712CE8CF0F5F80EAC80ED11C0430F9F6E3
:101BF0000E94FB0C1A8219821C821B821E821D828B
:101C000018861F8288EC90E09A87898709EC12E099
:101C10004AE050E0B801CE0101960E94B631065F5D
:101C20001F4F0931E3E01E0799F77E01FBE0EF0E3D
:101C3000F11C8AE0F70111928A95E9F74AE050E039
:101C4000B801C7010E94B631065F1F4F0936F3E0A5
:101C50001F07A1F7B0929D02A0929C0264960FB656
:101C6000F894DEBF0FBECDBFDF91CF911F910F91D2
:101C7000FF90EF90DF90CF90BF90AF909F908F90AC
:101C80007F90089580E00E94810D60E086E290E000
:101C90000E9492310E94B30D0E943C0D81E00C9491
:101CA000810D9B01883070F49AE0899FB001112466
:101CB00067537D4F4AE050E0C9010E94743190E0C3
:101CC00080E008958FEF9FEF08958F929F92AF92DB
:101CD000BF92CF92DF92EF92FF920F931F93CF9319
:101CE000DF93CDB7DEB72A970FB6F894DEBF0FBEED
:101CF000CDBF0FE413E0F12CE12C8FEBC82E88E26E
:101D0000D82E99EEA92E98E2B92E28E2822E28E24A
:101D1000922EF801D182C082B382A28295828482FF
:101D2000F58AE48ABE016F5F7F4F8E2D0E94510EAF
:101D3000892B29F489859A85F801938B828BFFEF93
:101D4000EF1AFF0A0A5E1F4F88E0E816F10409F750
:101D50002A960FB6F894DEBF0FBECDBFDF91CF91AC
:101D60001F910F91FF90EF90DF90CF90BF90AF90B9
:101D70009F908F900895CF92DF92EF92FF920F93F2
:101D80001F93CF93DF93CDB7DEB72A970FB6F894A2
:101D9000DEBF0FBECDBFECE4F2E080E5DF011D92B7
:101DA0008A95E9F7E9E0F3E088E3DF011D928A957F
:101DB000E9F78CE4C82E82E0D82E7F0109E113E018
:101DC000F701D182C0824AE050E0B801CE0101960D
:101DD0000E94743188E0FE013196D60101900D9287
:101DE0008A95E1F789859A85D70113969C938E93FE
:101DF0001297BAE0CB0ED11CE7E0EE0EF11C065FA5
:101E00001F4F0936F3E01F07D9F62A960FB6F8944C
:101E1000DEBF0FBECDBFDF91CF911F910F91FF901D
:101E2000EF90DF90CF9008956AEE7EEF90E080E033
:101E30000E94B03160E082E090E00E94923160E068
:101E400083E090E00E9492311092EC0160E084E027
:101E500090E00E94923160E082E290E00E94923134
:101E600060E085E090E00E94923160E086E090E0E2
:101E70000E9492316FEF87E090E00E94923140E043
:101E800050E0BA0188E090E00E94A43160E08DE06B
:101E900090E00E94923140E050E0BA0188E190E089
:101EA0000E94A43160E087E190E00E94923140E01E
:101EB00050E0BA018CE190E00E94A43170E060E053
:101EC00080E290E00E94B03140E050E0BA0188E149
:101ED00090E00E94A43180E00E94810D0E94420E99
:101EE00040E050E0BA018FE090E00E94A43140E071
:101EF00050E0BA0183E190E00C94A4310F931F935A
:101F0000CF93DF9300D000D00F92CDB7DEB79FEF15
:101F10009D83843068F540911A0150911B016091B6
:101F20001C0170911D0149835A836B837C83FE01E0
:101F3000E80FF11D2181E22FE295EF70F0E031A171
:101F40002F7081E090E001C0880F2A95EAF7932F67
:101F5000982B91A392A18095892382A30F900F9033
:101F60000F900F900F90DF91CF911F910F910895D7
:101F70002091010130910201232B81F78630C1F0BD
:101F80008730C1F0853091F08EEF8D8308EE13E03D
:101F900021E030E0AE014B5F5F4F63E080E40E94E0
:101FA000AA309093020180930101D8CF8DEFEDCF3D
:101FB0008BEFEBCF87EFE9CF0F931F93CF93DF9397
:101FC00000D000D00F92CDB7DEB78430E0F585E0C9
:101FD000EEE1F1E0DE01119601900D928A95E1F7B4
:101FE000FE01319650E040E090E080E001E010E03A
:101FF0006191A62FA295AF70B0E090962C9130E041
:102000006F7002C0359527956A95E2F720FD18C0DC
:102010009801042E02C0220F331F0A94E2F7822B8C
:10202000932B4F5F5F4F4530510511F70F900F9085
:102030000F900F900F90DF91CF911F910F91089506
:1020400030E020E0ECCF8091010190910201892BDA
:10205000A9F5198208EE13E021E030E0AE014F5FF0
:102060005F4F60E080E40E94D7309093020180933C
:102070000101892B19F589818095482F50E09A013B
:1020800094E0220F331F9A95E1F72071BA01660F91
:10209000771F660F771F6870262B8470282BCA0164
:1020A00095958795959587958270282B44FB882771
:1020B00080F9822B082E000C990BB8CF90E080E0BD
:1020C000B5CF0F931F93CF93DF9300D0CDB7DEB77B
:1020D00080E490E090930201809301018091760169
:1020E00081110EC00E94B32F81E0809376012FEF03
:1020F00083ED90E3215080409040E1F700C0000064
:102100008FEF898380EF8A8308EE13E022E030E0CE
:10211000AE014F5F5F4F66E080E40E94AA3080937B
:102120000101909302010F900F90DF91CF911F91C9
:102130000F91089578941F921FB61F9211248F93C8
:102140009F93AF93BF9380912D0490912E04A09103
:102150002F04B09130040196A11DB11D80932D0470
:1021600090932E04A0932F04B0933004BF91AF91AD
:102170009F918F911F901FBE1F9018959C014FB784
:10218000F89480912D0490912E04A0912F04B09189
:1021900030044FBF821B930B08952FB7F8948091A2
:1021A0002D0490912E04A0912F04B09130042FBFE4
:1021B00008950E94CD109C019091360280913702C3
:1021C000982B21F030933302209332029091380201
:1021D00080913902982B21F0309331022093300204
:1021E000E0912904F0912A04309749F082E080932D
:1021F00034020480F581E02D84E392E0099408958F
:102200008091030490910404892B89F00E94CD10E1
:102210002091E9013091EA01AC01421B530B81E0AE
:1022200020910304309104044217530708F480E01E
:10223000817008958091FF0390910004892B909103
:10224000E801892B80936E018091EB01882309F1CD
:102250008091030490910404892B29F00E940011BD
:1022600081110E94DC0980916E019091EB01892B14
:1022700080936E0120E080E791E0FC013191CF0175
:1022800031112F5FF1E086379F07B9F721110E94C6
:10229000DC09E0912904F0912A04309731F00280A2
:1022A000F381E02D8EE691E009940895CF93DF93BA
:1022B000EC0181E0898B8091FF039F81892B8093C2
:1022C000FF03809100049885892B809300040E946D
:1022D0001A11EA81FB81309739F06C897D89CE0132
:1022E0000696DF91CF910994DF91CF910895EF92F7
:1022F000FF920F931F93CF93DF93EC018A85811197
:1023000034C0EB80FC8087E5F81A26E12E9DC001E1
:102310002F9D900D1124DC01A15BBC4F1496ED9113
:10232000FC911597309731F054966D917C918B5AB2
:102330009C4F099586E18E9D80018F9D100D112483
:10234000015B1C4FF80187810E94EE09F80180852E
:102350000E94E7090E941A11188219861B861E82A4
:102360001D8210924E0310924D03DF91CF911F9169
:102370000F91FF90EF90089590E080E00E94F205A9
:1023800090E080E00E94DC05109200041092E801C9
:102390000E941A1186E0E4E3F2E0DF011D928A95C3
:1023A000E9F710922E0210922D0210922F020C9437
:1023B000D91080934B040C94BC1180914B04982F3E
:1023C0009670963019F488600C94D911877FFCCFF1
:1023D00021E030E001C0220F8A95EAF72095809134
:1023E0004B0482230C94D9119091E70180958923A5
:1023F0008093E701282F277039F4282F082E000C2E
:10240000330B9217130621F49091F20192FF07C04B
:102410008595859585950E94E8110C94F509089598
:1024200021E030E001C0220F8A95EAF780914B0449
:10243000822B0C94D9119091F20192FD10C098E07A
:10244000899F90011124622B6093E7010E94101272
:102450000E94CD109093E6018093E50108950C94BD
:1024600010128093EC010C94BC111092FF03E0E772
:10247000F1E086E0DF011D928A95E9F70C94BC112A
:102480001F93CF93DF93CDB7DEB7AA970FB6F8941B
:10249000DEBF0FBECDBF82E494E02091F100DC01ED
:1024A0002D93CD01B4E08A349B07B9F780914304A2
:1024B000833009F471C0B8F4813009F448C0823027
:1024C00009F4B2C08091E80083FF3AC180914204D0
:1024D000909143049A3008F033C1E92FF0E0E252C2
:1024E000FE4C0C944E318A3009F48DC08B3009F4C7
:1024F00070C0893039F780914204813219F7809198
:10250000460490914704009711F00297D9F6809104
:10251000E800877F8093E8008091E80082FF37C061
:102520009091F3008091F200029729F48091F100DC
:102530008B7F813021F48091F1008093360480916B
:10254000E8008B778093E8000E94AF04BBCF8091B6
:102550004204813A09F0B6CF8091E800877F8093EA
:10256000E8008091460490914704892B61F468E06B
:1025700087E394E070E00E9461058091E8008B772A
:102580008093E8009FCF60E090E080E0F3CF8091FF
:102590004A048111C1CF96CF80914204813A09F05B
:1025A00091CF8091460490914704892B09F08ACFFE
:1025B0008091E800877F8093E8008091E80080FFA9
:1025C000FCCF809119018093F1008091E8008E7713
:1025D000B9CF80914204813209F074CF80914604D2
:1025E00090914704892B09F06DCF8091E800877F97
:1025F0008093E8000E94AF04809144048093190105
:102600000E9435125FCF80914204813209F05ACF87
:102610008091E800877F8093E8000E94AF0480915A
:102620004504809335044ECF80914204813A09F0ED
:1026300049CF8091E800877F8093E8008091E8008F
:1026400080FFFCCF80913504BECF803899F082386E
:1026500009F076C0809146048F70873008F070C012
:102660008093E9008091EB0085FB882780F9109228
:10267000E90006C080913F0490914004911182606E
:102680009091E800977F9093E8008093F10010927A
:10269000F1008091E8008E77C0C1882309F4ADC1B4
:1026A000823009F04DC0809144048111B1C1809104
:1026B00046048F702FEF280F263008F041C080931A
:1026C000E9002091EB0020FFA3C1933031F4809109
:1026D000EB0080628093EB009BC19091EB009061D6
:1026E0009093EB0021E030E001C0220F8A95EAF7D9
:1026F0002093EA001092EA008091EB008860EACF14
:1027000081111EC0109144041F778091E3008078EE
:10271000812B8093E3008091E800877F8093E8001D
:102720000E94AF048091E80080FFFCCF8091E3001D
:1027300080688093E30082E0111183E080934A0473
:102740008091E80083FF0AC08091E800877F809332
:10275000E8008091EB0080628093EB00AA960FB6B0
:10276000F894DEBF0FBECDBFDF91CF911F910895CA
:102770008058823028F720914404309145042C3D44
:10278000E3E03E07A1F583E08A838AE289834FB7BD
:10279000F894DE01139620E03EE051E2E32FF0E0F2
:1027A00050935700E49120FF03C0E295EF703F5F24
:1027B000EF708E2F90E0EA30C0F0C7968D939D9316
:1027C0002F5F243159F74FBF8091E800877F8093B6
:1027D000E8006AE270E0CE0101960E9461058091F6
:1027E000E8008B778093E800ABCFC096E7CF80916D
:1027F000460490914704432F55274330510509F46F
:102800004AC078F54130510509F485C08BE590E068
:10281000EFEDF6E04230510509F092CF2091E8004B
:10282000277F2093E80020914804309149048217C3
:10283000930708F49C0140E02115310509F070C0B0
:1028400041116EC08091E80082FDC9CF80914A0499
:10285000882329F2853019F28091E80083FFF2CFB6
:10286000BECF4132510509F447C04232510509F04B
:1028700067CF8330910508F063CFFC01EE0FFF1F97
:10288000E15AFE4F0190F081E02D845A9E4FDC0109
:102890008C9190E01DC0332721303105E9F02115DE
:1028A000310579F022303105F9F02330310509F096
:1028B00047CFECE4F7E0E4918E2F90E0ECE4F7E012
:1028C00007C0E4E8F7E0E4918E2F90E0E4E8F7E059
:1028D000009709F435CFA2CFE4E7F7E0E4918E2F1B
:1028E00090E0E4E7F7E0F4CFEAE6F7E0E4918E2F3A
:1028F00090E0EAE6F7E0ECCF8330910508F020CFD6
:10290000880F991FFC01EB59FE4F0190F081E02DDB
:1029100089E090E083CF82E190E0EAE3F7E07ECFC8
:1029200080914A04882309F45ACF853009F457CF9F
:102930008091E80083FD53CF8091E80082FD82CF33
:102940008091E80080FF78CF9091F3008091F200B1
:102950002115310519F08830910550F041E00897B4
:1029600009F040E08091E8008E778093E80064CF22
:1029700044914093F1003196215031090196E8CFFE
:10298000803809F0DDCE8091E800877F8093E800F1
:10299000809141048093F1007CCE8111D1CE1091C1
:1029A0004404123008F0CCCE8091E800877F8093F9
:1029B000E800109341040E94AF04112311F084E059
:1029C00005C08091E30087FDFACF81E080934A043F
:1029D00042E061EC81E00E94CE0442E261EC84E0DE
:1029E0000E94CE0442E261EC82E00E94CE0442E208
:1029F00060EC83E00E94CE04A3CE80914404813039
:102A000009F09ECE81E0933009F080E0809340048D
:102A10001092E9008091E800877F8093E8000E948F
:102A2000AF048ECE1F920F920FB60F9211242F93E8
:102A30003F934F935F936F937F938F939F93AF9346
:102A4000BF93CF93DF93EF93FF93D091E900DF70B3
:102A50008091EC00C82FC17080FDC0E81092E900A1
:102A60008091F000877F8093F00078940E9440125C
:102A70001092E9008091F00088608093F000CD2BE7
:102A8000CF70C093E900FF91EF91DF91CF91BF919B
:102A9000AF919F918F917F916F915F914F913F91F6
:102AA0002F910F900FBE0F901F9018951F920F92AD
:102AB0000FB60F9211242F933F934F935F936F9311
:102AC0007F938F939F93AF93BF93EF93FF938091E7
:102AD000E10082FF09C08091E20082FF05C0809181
:102AE000E1008B7F8093E1008091DA0080FF24C0B9
:102AF0008091D80080FF20C08091DA008E7F809383
:102B0000DA008091D90080FF9FC080E189BD82E119
:102B100089BD09B400FEFDCF81E080934A04809115
:102B20003404811109C00E940D040E9400058091A7
:102B3000E20084608093E2008091E10080FF17C092
:102B40008091E20080FF13C08091E2008E7F80932D
:102B5000E2008091E20080618093E2008091D800E1
:102B600080628093D80019BC85E080934A048091EC
:102B7000E10084FF2DC08091E20084FF29C080E144
:102B800089BD82E189BD89B5982F917080FFFBCF07
:102B90008091D8008F7D8093D8008091E1008F7E56
:102BA0008093E1008091E2008F7E8093E20080912B
:102BB000E20081608093E20080914104882309F45F
:102BC00049C084E080934A040E9435120E9408069E
:102BD0008091E10083FF27C08091E20083FF23C042
:102BE0008091E100877F8093E10082E080934A0436
:102BF000109241048091E1008E7F8093E1008091EA
:102C0000E2008E7F8093E2008091E20080618093F9
:102C1000E20042E060E080E00E94CE048091F0009B
:102C200088608093F000FF91EF91BF91AF919F91E9
:102C30008F917F916F915F914F913F912F910F9065
:102C40000FBE0F901F90189519BC10924A04109255
:102C5000340472CF8091E30087FD93E090934A049F
:102C6000B3CF882321F00E94E7090C941A1108952C
:102C7000882339F090910004982B909300040C94D1
:102C80001A110895882321F00E94EE090C941A115C
:102C90000895882339F09091FF03982B9093FF03B8
:102CA0000C941A1108958823B1F19CEF980F913A72
:102CB00070F4E0E7F1E09191891303C0DF0111970F
:102CC0001C9291E0E637F907B1F70C941A1190E2E3
:102CD000980F983050F4877091E001C0990F8A9551
:102CE000EAF7892F0E94EE09F0CF9BE5980F933009
:102CF00020F490E080E00C94F20598E5980F97316D
:102D000020F490E080E00C94DC05803F20F00E94ED
:102D10008C060C94D9100895CF93DF93EC010E9498
:102D20005316CE010E94A80A9E01205E3109283068
:102D3000310510F0CD2B21F4DF91CF910C94421688
:102D4000DF91CF910C943116CF93C82F882309F4CB
:102D500056C08CEF8C0F813AF8F4E0E7F1E086E79B
:102D600091E0DF012D91C21759F08A179B07D1F727
:102D70006C2F8EE691E00E94C205CF910C941A113F
:102D80002191C21303C0DF0111971C928E179F0778
:102D9000B9F70E941A11ECCF80E28C0F883068F4EA
:102DA000C77021E030E001C0220FCA95EAF7809198
:102DB000FF03822B8093FF03E0CFEBE5EC0FE330C2
:102DC00040F4F0E0E55DFE4F808190E0CF910C94FF
:102DD000F205E8E5EC0FE73150F4F0E0EE0FFF1FED
:102DE000E25DFE4F80819181CF910C94DC05C03F64
:102DF00030F08C2F0E94A707CF910C94D910CF915F
:102E00000895FF920F931F93CF93DF938C01EB01F3
:102E1000F42E8091180182FF43C08B7F80931801AC
:102E2000809123042091250430912604AB01421B9C
:102E3000530B9A0140911601509117012417350741
:102E4000A8F40E94A416809118018D7F8093180128
:102E500080911F04909120040E94BC0B8091230458
:102E60000E94531682E00E94E70924C0909100045A
:102E70009260909300040E94A416809118018260D1
:102E80008093180180911C0485FFE2CF86FDE0CF7E
:102E9000FF20F1F2DF91CF911F910F91FF900895E4
:102EA000802F0E9453168091230490912404801750
:102EB0009107C1F20E941A11D0932604C0932504F1
:102EC000E9CF1F93CF93DF93182FC0912104D091A6
:102ED0002204893321F0C0911F04D0912004812F56
:102EE0000E94A416209731F4812FDF91CF911F917A
:102EF0000C9453168FE99FE00197F1F700C0000092
:102F00002197F0CF0F931F93CF93DF93C42FD22F2E
:102F1000FC0182818823A1F04093A4020E94CD107D
:102F20009093A3028093A202C77081E001C0880F32
:102F3000CA95EAF7DF91CF911F910F910C94491632
:102F40001091A402141339C08091A2029091A3029F
:102F50000E94BE102091190430911A048217930721
:102F600060F5C0E2CD0F1D17B9F080E2810F883007
:102F700040F4177081E001C0880F1A95EAF70E94AB
:102F80004216C83048F481E09D2F977001C0880F29
:102F90009A95EAF70E944916802F0E946117C8305F
:102FA00098F4D77081E001C0880FDA95EAF7DF91D5
:102FB000CF911F910F910C944216C77081E001C010
:102FC000880FCA95EAF7F3CFDF91CF911F910F9148
:102FD0000895DF92EF92FF920F931F93CF93DF93A9
:102FE000E82FF0E0E154FE4FD490282F2695269547
:102FF000269530E0F901E155FE4F0491877010E00D
:10300000082E02C0159507950A94E2F70170112762
:10301000F901E156FE4FE490F12C082E02C0F59420
:10302000E7940A94E2F791E0E922FF24F901E157DD
:10303000FE4FC491D0E002C0D595C7958A95E2F7BE
:10304000C170DD270115110519F081EE0E94A4164B
:10305000E114F10419F086EE0E94A4168D2D0E9451
:103060006117EF2819F086EE0E945316012B19F014
:1030700081EE0E945316CD2B51F08CE2DF91CF915F
:103080001F910F91FF90EF90DF900C946117DF91EB
:10309000CF911F910F91FF90EF90DF9008951F93B4
:1030A000CF93DF93EC011AE08881882309F43EC0B6
:1030B0008130C9F599818A81913029F422960E9444
:1030C00061172196F1CF923021F422960E94A41626
:1030D000F8CF933021F422960E945316F2CF943009
:1030E00011F02196EECF229630E020E0AE014F5F46
:1030F0005F4F8053990B8A30910550F02150310970
:1031000000F38FE99FE00197F1F700C00000F6CFD0
:10311000129FB001139F700D11249C01260F371FC1
:103120008981EA01E3CF0E94E917CBCFDF91CF91EC
:103130001F910895CF93DF93EC010E94A80A9E018E
:10314000205E31092830310510F0209739F40E94B3
:1031500049168C2FDF91CF910C94A4160E9438163B
:10316000F8CF8F929F92AF92BF92CF92DF92EF9261
:10317000FF920F931F93CF93DF9300D000D0CDB772
:10318000DEB77C01DC0113964D915C91149711968A
:103190006C9111978C910E941406811193C161E08A
:1031A000C7010E94A90C8C01F701828181112BC1FA
:1031B000D70112964C91411168C10031BFE51B0740
:1031C00009F407C20131EFE51E0709F406C2C80180
:1031D00097558F3F910511F008F04BC020910001E9
:1031E000022E000C330B2817390714F480930001CA
:1031F00026E1289F5001299FB00C11249501215BE5
:103200003C4F6901D90150964C935097F701928138
:1032100016968C911697992309F4E1C11A961C937E
:103220000E9319978F5F16968C930E94CD10D6013E
:103230001E969C938E931D978091EB0117968C930D
:103240001797809100049091FF03892B18968C9317
:103250001897ED91FC911197309739F054966D9134
:103260007C91C5018B5A9C4F099510934E03009396
:103270004D03D70112968C91882369F0C801815EB5
:103280009C45059740F46FE1600F6093F3018CE07B
:1032900090E00E94923117FF5EC0F701828188237F
:1032A00009F459C00E9408068695817080937801C0
:1032B0009091F301913029F4882319F089E30E9459
:1032C00061178091FF03809377011092FF03809133
:1032D000F301813009F495C1882309F48EC182304D
:1032E00009F49EC1843009F4A2C18FE39CE90197DF
:1032F000F1F700C000005801E894B7F84CE0C42E84
:10330000D12CC5010C2C02C0969587950A94E2F742
:103310008F7096EF980F963008F48EC1805D0E94F2
:10332000E91794E0C91AD108ACEFCA16AFEFDA0674
:1033300041F78091F301813009F484C1882309F4B5
:103340007DC1823009F47AC1843009F487C180914B
:1033500077018093FF0380911C0480FF35C00E9499
:10336000CD106C01F7018281882311F18091180141
:1033700082FF06C040E0B60190E080E00E940117A5
:1033800082E00E94E7090B31FCE51F0709F468C1E0
:103390000C312CE5120709F4B5C190911801892F61
:1033A0008E7F90FF81600A313CE5130709F4ADC1BF
:1033B0000832110508F0AFC10E31110508F0F2C155
:1033C0000430110508F0BAC1033FFCE51F0709F4FA
:1033D00021C208F009C2083D3CE5130709F414C2F4
:1033E000093D4CE5140709F427C2073D5CE51507C4
:1033F00009F03BC106E221EE41EE67ED7CE5C70135
:103400000E94821753C0809100018F3F09F4D0CEF3
:103410006FE4C62E63E0D62EB12CA12C9924939490
:1034200080910001082E000C990B8A159B050CF465
:10343000BFCEF6018681882309F181859285081720
:10344000190739F480914D0390914E03081719071D
:10345000A9F0D6011F969C921F971C961C930E9361
:103460001B9751968C91811103C0C6010E94561181
:10347000C60106960E94771110920004BFEFAB1AA6
:10348000BB0AE6E1CE0ED11CCBCFC80182519F45CD
:10349000409708F065C58FEF93E00E9484315EEE9F
:1034A000D52ED00E09E613E0882349F18091E7017B
:1034B000877041F0D70112968C91882319F082E031
:1034C0000E94F4110F900F900F900F90DF91CF9109
:1034D0001F910F91FF90EF90DF90CF90BF90AF9032
:1034E0009F908F9008950115F4E01F07F9F2C8012D
:1034F0000E948431811101C0DA940F5F1F4FD110F7
:10350000F2CF19821A821B821C82CC24CA944801F1
:103510002FEF821A920AC8010E94843189831A828D
:10352000882321F2813009F048C0580132E0A30E0F
:10353000B11CC4010E948431982E8A83882309F427
:10354000B5CFC5010E948431D82E8FEF890D83300D
:1035500068F4580143E0A40EB11CDB82DD2021F0A9
:10356000CE0101960E944F188501D1CF54E09512EB
:10357000FBCF580184E0A80EB11CC80103960E943D
:103580008431DD2009F492CF882309F48FCF815054
:10359000990BC89E9001C99E300D1124AD2DA150EC
:1035A000BB0BCD01820F931F0197F0F2EFE9FFE013
:1035B0003197F1F700C00000F7CFCE0101960E94CD
:1035C0004F185401D1CF81E00E9410120E94DD11EA
:1035D0006DCF81E00E94E811F9CF82E0FBCF882314
:1035E00009F447CEF9018189882309F442CEC50147
:1035F0008B5A9C4F0E9477113CCE82EE0E94A416FB
:1036000074CE88E193E00E949A1880911F049091F3
:1036100020040E94BC0B88E193E00E948C1665CECA
:1036200082EE0E94A41687E50E9461175ECE86EEA8
:103630000E94611788E1F8CF895A71CE82EE0E940C
:10364000531685CE8CE20E94611780917801882301
:1036500009F47DCE89E30E94611779CE88E2FBCF21
:1036600080911801816080931801F7013281332322
:1036700009F482C41092A4020230FCE51F0708F48A
:10368000AFC406312CE5120730F0C8018A5F9C45B3
:10369000099708F0A5C40E94D00C9093F201809382
:1036A000F10100313CE5130709F474C108F007C1CA
:1036B00008305CE5150709F463C108F0D6C0043092
:1036C0009CE5190709F454C108F0BCC00230BCE500
:1036D0001B0709F447C18091F101826003301C454A
:1036E00009F443C16091F1011091F20184E090E08E
:1036F0000E949231612F82E290E00E9492310E94FA
:103700003512D4CE809118018E7F8093180182E00B
:103710000E94E709AACF0933110560F40D321105A3
:1037200020F40B32110509F04FCE80911C0482FD6C
:103730004BCE08C004361105C1F346CE80911C045F
:1037400084FD42CED70112968C91882309F446C09D
:103750008091180180FF38CE90911C0491FD04C027
:103760002091FF03211130CE95FF27C02091250421
:1037700030912604F601E21BF30B9F0196FD02C077
:1037800081FD1BC0283C3105C0F4209123043091F9
:1037900024040217130789F481FD09C0802F0E94B9
:1037A000A41684CE80911C0483FD0ECECBCF8091D5
:1037B0000004826080930004F1CF109324040093EE
:1037C0002304D0922604C0922504809118018460BD
:1037D0008093180182E00E94F41168CE40E0B601A7
:1037E000C8010E94011762CE053F8CE51807F1F071
:1037F000B8F0063FACE51A0709F037CF07E225EE2F
:1038000046EE66EF7CE5FBCD07E225EE45EE68ED82
:103810007CE5F5CD06E221EE40EE63EF7CE5EFCDF1
:1038200007E225EE44EE64EF7CE5E9CD06E221EE09
:1038300042EE65EF7CE5E3CD08E221E045EE69ED7F
:103840007CE5DDCD8091F10180610630FCE51F074C
:1038500009F48BC08091F101886007301C4508F4A1
:1038600084C08091F101806280C08091F1018D7FE0
:103870000C303CE5130709F478C070F48091F10135
:103880008C600A305CE5150709F46FC008F47CC051
:103890008091F1018E7F69C08091F101877F0E30A8
:1038A0009CE5190709F461C08091F1018B7F0F300D
:1038B0001C4508F45AC08091F1018F7E56C00B3F21
:1038C000BCE51B0709F458C030F50331FCE51F07C0
:1038D00009F468C078F401313CE5130709F45EC0CF
:1038E00002311C4509F0FECE0E9435128091F10193
:1038F0008F773BC005315CE5150709F45BC008F420
:103900006FC08091F20181600A3F1C4509F0EACE48
:103910008093F201E7CE0F3FACE51A0709F446C0E9
:1039200088F48091F2018D7F0D3FECE51E0781F355
:103930008091F2018E7F0E3F1C4550F38091F20181
:103940008360E6CF01302DE5120709F452C0F0F193
:1039500060E002301D4509F0C5CE8EE090E00E9487
:103960009231C0CE8091F10181608093F101BACE95
:103970008091F1018460F9CF8091F2018260C8CF1B
:103980008091F1018064F1CF0E9435128091F101A4
:103990008068EBCF8091F1018F7DE7CF8091F101BD
:1039A0008F7BE3CF8091F101837FDFCF8091F201A4
:1039B0008C7FAECF8091F10182FB992790F921E0B5
:1039C000922790FB82F990FB83F9CFCF8091F2018F
:1039D000982F909591708E7F892B90FB81F998CFCD
:1039E0000E9435129091F101892F97FB87F9805839
:1039F000BCCF61E0B2CF8091790181110FC089E223
:103A0000E0E7F1E026E731E09191891303C0DF019F
:103A100011971C922E173F07B9F7DFC285E3F0CF4D
:103A20000B35BDE51B0701F10C351D4509F0ECC256
:103A30008091F20182FB882780F991E089270E941A
:103A4000990DE2C20E943512FFEF24E33CE0F150F1
:103A500020403040E1F700C000000E94980B0E9417
:103A6000140F24CD81E0EBCF80E0E9CF828100818B
:103A70001181882369F0C8010E94370CD82E682F65
:103A8000C8010E94590AB8018D2D0E941B0CC2C2A8
:103A9000C8010E942C0AD82EF6CF202F2F70B22EEC
:103AA000802F807F19F0B29490EFB922CC20C9F01A
:103AB000BB2069F080E2810F883010F011110BC03B
:103AC0008091FF03B82AB092FF030E941A11812F40
:103AD0000E94A41616C080910004B82AB092000477
:103AE000F4CF812F0E945316BB2059F080E2810F42
:103AF000883010F0111133C08B2D0E94EE090E9406
:103B00001A11A92DA850BB0B149710F40E94080697
:103B1000812F902F0E94890A811103C210927B018C
:103B200010927A01AA20B1F08091E70180FD12C0C5
:103B3000D70112961C928595859585950E94101245
:103B4000C7010E94B1188091E701859585958595FB
:103B50000E94E81160E0C7010E94A90CB3CC8B2D34
:103B60000E94E709CCCF302F3F70B32E802F807F8B
:103B7000803219F0B29480EFB822112321F1113074
:103B800009F46DC0CC2009F476C0DD2009F448C0EA
:103B900020E0D7014C9111965C91119712966C918F
:103BA000129713967C91139714968C910E94800C17
:103BB00080911E0481FD8BCFF701858180FF87CF27
:103BC0008F7085832DC0CC2069F1D11006C0809103
:103BD000EB018B290E94491694CF41E0D41213C007
:103BE0008091F20182FD8DCF8091EB01B82AB81649
:103BF00009F487CF0E94CD109093EA018093E901E8
:103C0000B092EB017ECF80911D04823000F3D81278
:103C1000DECF0E94DC098091E401B812B092E40189
:103C20008B2DD8CFD11006C00E94DC098B2D0E94AD
:103C3000421667CF80911D0451E0D5120BC082302F
:103C400008F45FCF8091FF038B2109F45ACF0E94C3
:103C5000FC09EACF823040F3D812E6CF52CFCC2015
:103C600029F085E08D1508F44CCFDACF94E09D154E
:103C700008F447CFDBCFDD20C9F280912104909179
:103C80002204193321F080911F04909120040E9496
:103C9000BC0B812F0E94531634CF802F86958695BA
:103CA000837069F0813009F02CCF812F902F9370B1
:103CB000C11002C090E080E00E94DC0522CF812F7D
:103CC000902F9370C11002C090E080E00E94F20536
:103CD00018CF812FCC2039F00E94A7070E94D9105D
:103CE0000E94D9100ECF0E948C06FACF802F8370CD
:103CF00091F5C11006CF412F429546954770440F6C
:103D0000440F812F8F70042E01C0880F0A94EAF7A8
:103D1000212F207114FF07C02FE030E001C0220FD7
:103D20004A95EAF72095302F369536953370323024
:103D300069F050F44091EC01313029F0822B84235A
:103D40000E943112DECE842B822BFACF282B809159
:103D5000EC018227F5CF8695CC2011F0802F817061
:103D6000882309F4CECE412F429546954770440FE3
:103D7000440F812F8F70042E01C0880F0A94EAF738
:103D8000212F207114FF07C02FE030E001C0220F67
:103D90004A95EAF72095302F3695369533703230B4
:103DA00069F050F440914B04313029F0822B842388
:103DB0000E94D911A6CE842B822BFACF282B80917A
:103DC0004B048227F5CFF02FFF70BF2ECC2029F0B7
:103DD0008F2F0E941012812FFDCE812F0E9442163C
:103DE0008B2D0E94E8118DCE123F09F44AC060F479
:103DF000103F41F1113FE9F1CC2009F48DC0D11001
:103E000066CE802F8F713AC0133F09F43FC0143F34
:103E100099F720911D04223008F466C08091E401D6
:103E2000CC2009F44EC00E94EE098091E701877012
:103E30008430C1F50E94F509802F8F710E94E8112E
:103E4000A12C5FCECC2081F024E02D1508F459CEB2
:103E5000202F2F7181E090E001C0880F2A95EAF7AA
:103E600090914B048927A4CF35E03D1508F449CE45
:103E7000EFCF802F8F71CC2009F4B3CF0E941012A6
:103E800040CE802F8F71CC20C9F3ABCF80E0CC2007
:103E900009F48ECF81E0902F9F7101C0880F9A9511
:103EA000EAF786CF80911D04D81650F6402F4F7147
:103EB000B42E842F0E94101263E08B2D0E941B12DF
:103EC000BFCF9091FF03982B9093FF03D21640F041
:103ED0000E94F5090E94FC0964E0802F8F71EECFEB
:103EE00081E00E94F411ACCFCC2059F0502F5F71CB
:103EF000B52E852F0E94101263E08B2D0E941B129D
:103F000000CE81E00E94F41181E08D1508F0F9CD1A
:103F100082E00E94F411F5CDD110AFCE802F8F71C9
:103F200060CFCC2019F0D110F9CDFCCDD110F6CD59
:103F300020E0F701408151816281738184810E9478
:103F4000800C80911E0483FFE9CD80917A019091CD
:103F50007B01029709F0E2CD812F0E946117DECD2F
:103F60000031FFE51F0709F42ECB01312FE51207C1
:103F700009F02DC982E028CB06311C4509F044C068
:103F80008091FF03982F9A7A20911B0420FF04C090
:103F9000482F447409F090E021FF04C0482F41717C
:103FA00009F090E022FF04C0482F487809F090E023
:103FB00023FF03C0827209F090E0332309F41BCD84
:103FC00081E0911101C080E08093790169E2911153
:103FD00065E38EE691E00E94C2050E941A1166CA4E
:103FE00006315CE5150761F20A355DE5150709F450
:103FF00039CD08F015CD01159CE5190709F422CD3E
:104000000E3D1C4509F42BCDF70186819781009761
:1040100009F42CCD0E945408182F092FF701C280F3
:10402000D580D2943FE0D3228091E7018770A1F040
:10403000AC2CCC2091F0892F807F803421F080E25D
:10404000810F883048F082E00E94F4118091E701EE
:104050008770AA24A3948111A12C902E92942FE012
:104060009222FBE0F91508F44CCDE92DF0E0E8517F
:10407000FE4C0C944E31CF92DF92EF92FF920F9351
:104080001F93CF93DF9380919F01807F31F48091C4
:104090009C01C091E30181110BC0DF91CF911F9171
:1040A0000F91FF90EF90DF90CF9008952196C77009
:1040B0008091A2018C1789F3F0909A01E0909B0106
:1040C000C0909D01D0909E01A6016E2D8F2D0E9463
:1040D0001406D0E08111EACF8E0183E0000F111F9A
:1040E0008A95E1F7F801ED55FE4F81818E11DECF03
:1040F00080818F11DBCF82818111D8CFE380F48062
:10410000EC18FD0860E08AE991E00E94A90C80911A
:10411000190490911A04E816F90640F680919F015F
:104120008F70806180939F01F801E855FE4F808178
:104130008F70806180838AE991E00E94B118DF91DD
:10414000CF911F910F91FF90EF90DF90CF900C9443
:10415000220A5F926F927F928F929F92AF92BF924C
:10416000CF92DF92EF92FF920F931F93CF93DF9343
:10417000CDB7DEB765970FB6F894DEBF0FBECDBFE3
:104180008C0185E0F801DE01519601900D928A952F
:10419000E1F7D8011296EC908AE9A82E81E0B82EBA
:1041A00080909D0190909E01A40160919B0180915F
:1041B0009A010E9414068111EAC1F801C380D480DB
:1041C000F0909C01C601881999094C01FF2009F45F
:1041D0007AC15080618060E0C5010E94A90C809185
:1041E000190490911A0470909F018816990608F09E
:1041F0001DC140919D0150919E01B0909A01A090E7
:104200009B01872D807F6A2D09F0B7C08B2D0E94FE
:104210001406FE2C811139C0D80111968C9111978A
:104220008A1133C08C918B1130C02091A001309144
:10423000A10116968D919C912817390731F5E1104F
:1042400024C0872D8F70806180939F018AE991E05F
:104250000E94B11880919F01F80185838F2D65968A
:104260000FB6F894DEBF0FBECDBFDF91CF911F9187
:104270000F91FF90EF90DF90CF90BF90AF909F9005
:104280008F907F906F905F90089560E08AE991E051
:104290000E94A90C8091190490911A04843F9140C6
:1042A000F8F0A601662D852D0E94140681114CC0E0
:1042B00081E08E2580FF1DC04E2D662D852D0E942C
:1042C000020A8823B1F08AE991E00E94B11888E0DF
:1042D000EAE9F1E0DF011D928A95E9F7F12CBECF02
:1042E00060E08AE991E00E94A90C80911E0480FDA3
:1042F000D8CFA601662D852D0E941406811126C0F7
:1043000081E08E25B82FB170CB2E80FF2DC04E2DB1
:10431000662D852D0E94020AD82E811125C0598A4A
:104320006A8A89899A890E94660C292F22952F70A2
:10433000223070F0243098F49F7071F0F80195816C
:10434000907F51F4FD2C8ACF80E0B4CF80E0DACFAB
:104350009F7011F08823B1F3805E883098F3C80114
:104360000E94B118DC2CEECFEE2009F477CF8091BB
:104370009F01816080939F01B1CF8B2D0E94140615
:10438000811124C0D80111968C9111978A111EC0F9
:104390008C918B111BC02091A0013091A101169628
:1043A0008D919C9117972817390781F4E1100EC061
:1043B00015967C92C8010E94B11888E0F801AAE91C
:1043C000B1E001900D928A95E1F748CFC8010E94B3
:1043D000720C882339F1EE2029F180919F018032FF
:1043E000A0F020919A0130919B013A8729871B8682
:1043F000DD86CC868E878091A0019091A101988B5B
:104400008F87CE0109960E94B11888E0F801AAE9C9
:10441000B1E001900D928A95E1F70E943B20FF24C4
:10442000F3941CCFC8010E94B118F9CF872D807F6B
:1044300009F449CF90909A0180909B0140919D0191
:1044400050919E01682D892D0E94140681111CC077
:10445000F8018181881118C08081891115C02091CF
:10446000A0013091A101868197812817390761F455
:10447000E1100AC07582C8010E94B11888E0D50118
:104480001D928A95E9F7EACEC8010E94720C882332
:1044900049F2EE2039F280919F01803208F4B5CFC5
:1044A00020919A0130919B013A8329831B82DD82FE
:1044B000CC828E838091A0019091A10198878F83F7
:1044C000CE010196A0CF60E08AE991E00E94A90C9C
:1044D0008091190490911A048816990608F051C029
:1044E000FE2CEE2009F49ECFE0909A01D0909B0123
:1044F00040919D0150919E016D2D8E2D0E941406BC
:10450000811131C0F80181818D112DC080818E1102
:104510002AC02091A0013091A1018681978128179E
:10452000390709F560E08AE991E00E94A90C8091C1
:104530001E0482FD42CF90919F0190FD3ECF907F5F
:1045400009F43BCF80919F01D80115968C93159764
:10455000903F09F42FCF982F907F905F8F70892B19
:1045600015968C9327CFC8010E94720C81114DCFF4
:1045700080919F01816080939F01C8010E94B118C2
:104580006DCE88E0F50111928A95E9F767CEEE20AD
:1045900009F448CFC8010E94720CF82E882309F450
:1045A00041CF88E0F801AAE9B1E001900D928A9527
:1045B000E1F780919A0190919B010E94660C0E9404
:1045C0003B204CCECF93DF93CDB7DEB760970FB6CD
:1045D000F894DEBF0FBECDBF29873A874B875C8733
:1045E0006D877E878F87988BCE0109960E94A920C0
:1045F00081112FC088E0FE013996DE0111960190ED
:104600000D928A95E1F74C855D856A8589850E94C2
:10461000140681111EC0A091A201B0E0CD01019647
:10462000877099272091E3012817190609F193E073
:10463000AA0FBB1F9A95E1F7AD55BE4F98E0FE015A
:10464000319601900D929A95E1F78093A2010E9414
:10465000220A8091E3019091A201891317C060960C
:104660000FB6F894DEBF0FBECDBFDF91CF91089596
:104670000E9435121092A2011092E30188E0EAE94B
:10468000F1E0DF011D928A95E9F7E3CFB8E08B9F57
:10469000C00111248D559E4F0E94A9208823F9F254
:1046A0008091E30190E00196877099278093E30160
:1046B000D0CFEF92FF920F931F93CF93DF93809110
:1046C000A802882361F0C091A7028CE0F82E8091A7
:1046D000A802C81758F01092A8021092A702DF9102
:1046E000CF911F910F91FF90EF900895EE24E394E6
:1046F000EC0EE092A7020C2F10E0CF9DE0011124F8
:10470000C755DD4F4B815C81698188810E94140609
:1047100081111BC08E819F81892B21F48885998509
:10472000019651F4288139814A815B816C817D81B8
:104730008E819F810E94E222F09EF001F19EF00D99
:104740001124E755FD4F14821382CE2DC0CF109255
:104750004C0310924B031092150180914A038093F1
:1047600049030E944D060C9459233F924F925F9249
:104770006F927F928F929F92AF92BF92CF92DF9271
:10478000EF92FF920F931F93CF93DF93C091490352
:1047900097E0892E01E010E02CE0322E3EEF932EC0
:1047A0004424439480914A038C1315C00E945923DA
:1047B000DF91CF911F910F91FF90EF90DF90CF90FD
:1047C000BF90AF909F908F907F906F905F904F9031
:1047D0003F900C944D06D0E0FE01EE0FFF1FEF5B03
:1047E000FC4F80819181889ED001899EB00D11245B
:1047F000A75FBC4F14962C911497211157C050906D
:10480000A802E9EAF2E030E020E0712C5D01251514
:1048100008F04AC0E284F384D501CD90DC906FEFBC
:104820007FEF612C462D50E0DA01AA0FBB1FAC0DC3
:10483000BD1D0D90BC91A02D109731F0EA16FB061E
:1048400009F4BA016394EECF6F3F7607A1F1D80166
:1048500002C0AA0FBB1F6A95E2F77A2AB80102C00C
:10486000660F771F6A94E2F7AB0141505109741645
:104870001506F9F4329EF001339EF00D1124E75530
:10488000FD4F889ED001899EB00D1124A75FBC4FBB
:1048900012962D913C9113973783268390829182B3
:1048A0009187808715964C920E941F062196C370AF
:1048B00079CF148213822F5F3F4F3C96A8CFCF92BF
:1048C000DF92FF920F931F93CF93DF9380910101AB
:1048D00090910201892B71F08091ED018F5F80939F
:1048E000ED01811107C00E94611090E090930201D8
:1048F0008093010107EF11E0F12CC0E084E0D82E95
:10490000DC0E8C2F0E947E0F8D2D0E947E0F8C2F2F
:104910000E94DC0FF80120813181D0E082179307DB
:1049200019F091838083D1E08D2D0E94DC0FF80176
:10493000208531858217930709F464C091878087A9
:1049400081E08D2BF82A0E94D90ACF5F0E5F1F4F9E
:10495000C430A1F6FF2009F457C081E08093F00134
:104960000E94CD109093EF018093EE018091EE01B3
:104970009091EF010E94BE10059708F449C0809104
:10498000F7019091F80190931E0280931D0280918F
:10499000F9019091FA019093200280931F02809177
:1049A000FB019091FC01909322028093210280915F
:1049B000FD019091FE019093240280932302809147
:1049C000FF0190910002909326028093250280912E
:1049D0000102909102029093280280932702809115
:1049E00003029091040290932A02809329028091FD
:1049F00005029091060290932C0280932B02109254
:104A0000F00106C080E09DCF8091F0018111AECF12
:104A10008091000110E006E18F3F09F05FC08091B6
:104A20001501811166C080911C0480FF1CC080911B
:104A3000180182FF18C00E94CD10209125043091EA
:104A40002604AC01421B530B209116013091170133
:104A50004217530740F041E0BC018091230490913C
:104A600024040E9401178F2DDF91CF911F910F9188
:104A7000FF90DF90CF900895029FF001039FF00D0B
:104A80001124E15BFC4FC288D388C114D10421F406
:104A9000C0901904D0901A04029FE001039FD00D2A
:104AA0001124C15BDC4F8E818823B9F08D859E85F2
:104AB0000E94BE10C816D90680F4109F6001112410
:104AC0008989811105C0C601815B9C4F0E945611E6
:104AD000C6018B5A9C4F0E9477111F5F212F30E037
:104AE00080910001082E000C990B8217930724F681
:104AF00096CF80914B0390914C03009709F493CF8C
:104B00000E94BE102091A5023091A60228173907F5
:104B100008F089CF9091490380914A03981759F082
:104B20000E94B5231092A6021092A50210924C0387
:104B300010924B0378CF0E94592310924C0310928D
:104B40004B030E944D066FCF2F923F924F925F9280
:104B50006F927F928F929F92AF92BF92CF92DF928D
:104B6000EF92FF920F931F93CF93DF93CDB7DEB7F2
:104B700069970FB6F894DEBF0FBECDBF942F498B57
:104B8000252F5A8B6B8B7C8B8D8B4C895D89622F8B
:104B9000892F0E941406811109C080917A01909199
:104BA0007B01019690937B0180937A018B8981111F
:104BB000109200041D861E861F86188A85E0FE015D
:104BC0007196DE01199601900D928A95E1F7809118
:104BD000030490910404892BC1F00E94CD10209110
:104BE000E5013091E601821B930B20910304309183
:104BF00004048217930720F08091E70182FFF5C13A
:104C00000E94001181110E94DC094C855D856A8536
:104C100089850E941406811111C061E0CE010996B8
:104C20000E94A90C6C018B8527EFC2162CE5D206D9
:104C300081F4882321F181E08093150129853A854B
:104C40004B855C856D857E858F8598890E94E222E3
:104C5000C5C038EFC3163CE5D30629F4882379F0A4
:104C60000E94A723EBCF49EFC4164CE5D40639F4D4
:104C7000882329F0809115018111F2CFDCCF09E062
:104C800013E0512CB12CA12C22242394312C2EEF93
:104C9000422EF8014081518188248A94982C20E08A
:104CA000822F90E0FC01EE0FFF1FE40FF51F6081E3
:104CB00071816115710531F0C616D70609F44C01F2
:104CC0002F5FEECFF12CFFEF8F169F0609F448C03F
:104CD000F8014481F09015018F2D411180E0F82FEB
:104CE000F170FF2EF801E58086819B85992309F4F8
:104CF0000CC1FF2009F409C16090170470901804DA
:104D0000E11012C0A10101C0440F8A94EAF7842B7C
:104D100086838091A5029091A6028615970520F4BE
:104D20007092A6026092A502C10102C0880F991F6D
:104D30002A95E2F70197F80126812817190681F4D0
:104D400080914B0390914C03009709F460C00E943E
:104D5000BE106816790608F05AC021E0F8012483D5
:104D60005F28FFEFAF1ABF0A095F1F4F28E0A216A6
:104D7000B10409F08ECF8B85882309F421C1552019
:104D800009F41EC10E94CD1090934C0380934B03F5
:104D90008091A802883010F591E0980F9093A802B6
:104DA00098E0FE013996DE01119601900D929A95D8
:104DB000E1F73CE0839FC001112487559D4F28E017
:104DC000FE013196DC0101900D922A95E1F72FEF5B
:104DD0003FEFFC0131872087D386C28669960FB6E4
:104DE000F894DEBF0FBECDBFDF91CF911F910F9121
:104DF000FF90EF90DF90CF90BF90AF909F908F90FB
:104E00007F906F905F904F903F902F90089580918A
:104E1000490350914A03982FF0E0E0E0851314C055
:104E200090934903E017F10709F49ACF90E0FC0151
:104E3000EE0FFF1FEF5BFC4FB182A08201968370E3
:104E4000992780934A038CCF682E712CF301EE0FC3
:104E5000FF1FEF5BFC4F2081318147E0429FD00173
:104E6000439FB00D1124A75FBC4F6D917C911197AA
:104E7000798F688F40E020E030E0E32FF0E0EE0F24
:104E8000FF1F688D798DE60FF71F80809180811458
:104E90009104E1F0F8010190F081E02DFF8BEE8BA1
:104EA00020E005C08616970609F44F2D2F5FE22FEC
:104EB000F0E0EE0FFF1F6E897F89E60FF71F60811C
:104EC00071816115710571F73F5FD7CF4423D1F030
:104ED000F801231708F0FD0121E024830E171F07B6
:104EE00021F490934903F42E3BCF981305C0AE17DD
:104EF000BF0711F49F5F937093012F5F3F4F822F85
:104F000083708CCFF0E0E0E0F7CF90E0E1101FC0BD
:104F1000B10102C0660F771F2A95E2F79B0121506D
:104F200031098217930731F4442309F447C0C501BE
:104F30000E941F06C10101C0880F8A94EAF7982FCA
:104F40009095F801868189238683FE2C09CF9C01E8
:104F5000082C02C0359527950A94E2F7A901417003
:104F60005527BC016150710986239723892B11F5C0
:104F7000452B01F1F80182819381892BC1F01B82BD
:104F80001C821D821E8249824A820E94CD1081604D
:104F9000582F9D838C83F801828193818F8398871A
:104FA00029813A814B816D817E810E94E222F80144
:104FB0001582C0CFF22FF170EF2EBCCFEF2CBACFFD
:104FC0009091490380914A03981731F00E94B523CC
:104FD000552009F433CE02CF0E94592310924C037E
:104FE00010924B030E944D06F3CF82E00E94F41111
:104FF00007CECF93DF9300D000D00F92CDB7DEB7AE
:1050000090939F0280939E02811520E2920748F4BC
:105010000F900F900F900F900F90DF91CF910C9405
:105020008C168EEF89838A831B820E94CD1081604B
:10503000782F9D838C8349815A816B818D810F905C
:105040000F900F900F900F90DF91CF910C94A425AB
:105050000F931F93CF93DF938C01EB0162E472E017
:105060008C2F0E94510E892BA1F480911F049091E6
:1050700020040E94BC0BDD27C65CDD4F8881F8014F
:1050800010821882833009F148F4813059F082305F
:1050900081F0DF91CF911F910F9108958430D1F06D
:1050A0008530B9F78091420290914302009789F3CD
:1050B00006C08091440290914502009799F3DF91D8
:1050C000CF911F910F910C94F927809146029091F6
:1050D0004702F3CF8091480290914902009779F7F7
:1050E0002091420230914302809144029091450206
:1050F00021153105D9F2009711F7C901E0CFCF93FF
:10510000DF9300D000D00F92CDB7DEB790939F020F
:1051100080939E02811520E2920748F40F900F9031
:105120000F900F900F90DF91CF910C949A188EEF03
:1051300089838A8381E08B830E94CD108160782FE0
:105140009D838C8349815A816B818D810F900F9053
:105150000F900F900F90DF91CF910C94A425CF93D7
:10516000DF93EC010E947F2880911F04909120041E
:105170000E94BC0BCE01DF91CF910C94F9270F93C5
:105180001F93CF93DF938C01862F62E472E00E941D
:10519000510E892BC9F4C0914202D091430220974D
:1051A00099F0F8018081833069F4CE010E94AF2824
:1051B000CE010E94AF28CE01DF91CF911F910F91B8
:1051C0000C94AF288430B8F7DF91CF911F910F91E5
:1051D00008950F931F93CF93DF938C01EB0162E44B
:1051E00072E08C2F0E94510E892B09F064C0FE01E1
:1051F000FF27D8018C91E65CFD4F8130D9F41996D8
:105200009C911997992311F080830CC01A969C9158
:105210009923D1F382E080838091440290914502EA
:105220000097D9F48091420290914302009709F4CB
:1052300042C013C08230E9F519968C9119978111FB
:105240002DC01A968C9181110EC083E080838091CD
:10525000460290914702009719F1DF91CF911F917B
:105260000F910C947F2884E0808380914802909174
:105270004902009791F78091420290914302009772
:10528000F9F00E94AF288091440290914502009766
:1052900021F78091420290914302DFCF85E0808325
:1052A0008091420290914302009729F00E94AF281A
:1052B000F0CF86E08083DF91CF911F910F91089509
:1052C0008091440290914502B1CF1F921FB61F9268
:1052D00011248F939F93AF93BF9380912D0490914E
:1052E0002E04A0912F04B09130044196A11DB11D50
:1052F00080932D0490932E04A0932F04B093300438
:10530000BF91AF919F918F911F901FBE1F901895D5
:10531000CDB7DEB7EA970FB6F894DEBF0FBECDBFAC
:1053200084B7877F84BF0FB6F894A89580916000FA
:10533000886180936000109260000FBE80E890E06A
:105340000FB6F89480936100909361000FBE85B70B
:10535000806885BF85B7806885BF8FE098E09093AF
:105360006D0180936C010E94650E0E94BB0E0E942D
:10537000C60B0E940D040E9400058091E20084602B
:105380008093E200789480914A048823A1F01091E0
:10539000E9001F709091EC00892F817090FD80E8EA
:1053A000182B1092E9008091E80083FD0E944012C2
:1053B0001F701093E90082E084BD93E095BD9AEFE1
:1053C00097BD80936E000E94B70C811102C00E94AD
:1053D000420E0E94611090E09093020180930101BF
:1053E0000E94D90A85E0EEE1F1E09E012F5F3F4F78
:1053F0002901D90101900D928A95E1F7D901AE01F9
:105400004A5F5F4F61E070E08D91E82FE295EF70A9
:10541000F0E021A18F708B0101C0000F8A95EAF79F
:10542000802F8095282321A392A1982392A382A163
:10543000802B82A34A175B0739F7E7EFF1E087E09B
:1054400092E0ADE1B2E0119211921D921D928E1781
:105450009F07C9F790E080E00E948C318A3E9E4F02
:1054600021F40E94B70C811102C00E94140F82E047
:1054700090E00E948431809308020E94D00C9093A7
:10548000F2018093F1010E945F248FE39CE9019770
:10549000F1F700C000000E945F2480911D0280FF90
:1054A00008C06FEF7FEF90E080E00E94B0310E9473
:1054B000980B83E090E00E9484310E9431128CE0CE
:1054C00090E00E94843190E0B0E0A0E08093F3018E
:1054D0009093F401A093F501B093F60183E091E07D
:1054E00090932A048093290499249A94882483947D
:1054F0005AE0352E63E0262EFE013396FEABEDAB6F
:105500000E945F24882359F08FB7F89440912D04AE
:1055100050912E0460912F04709130048FBFA9E048
:10552000B2E0EDE1F2E010E000E0602F81919191B6
:105530002D913D912817390709F4D3C02827392721
:1055400070E0EE24E394F12CA9014E215F21452B5C
:1055500009F4C1C07BA76CA79C012E213F2191E0DB
:10556000232B09F490E09DA70E94CD108160782F35
:105570009FA78EA74BA55CA56DA58FA50E94A4250E
:10558000000F111FF801E75FFD4F80819181E82630
:10559000F926F182E08286E0E4E3F2E0D2010190B4
:1055A0000D928A95E1F7E0903602F0903702009173
:1055B000380210913902109236021092370210927E
:1055C0003802109239028E2D8F2991F0809132028B
:1055D000909133020E94BE10AC0190912E0299234B
:1055E00009F495C0809113018417150608F49CC036
:1055F000802F812B91F080913002909131020E9496
:10560000BE10AC0190912D02992309F4CAC080917B
:105610000F018417150608F4D1C0809136029091CD
:105620003702892B90913802892B90913902892B6E
:1056300011F00E94D91086E0F201A4E3B2E00190DB
:105640000D928A95E1F70E9408069091070289174A
:1056500021F00E9408068093070280914A0484305A
:1056600009F04ECF2092E9008091E80082FF48CFF8
:105670008091E80090E085FF0AC00E942C0430E28F
:10568000E32EF12C8201882309F4DFC091E08091A0
:10569000E8008B778093E800992309F431CF0091DB
:1056A000A0021091A10289810115110509F4DBC046
:1056B0008E3F09F062C18A81833020F085508330AB
:1056C00008F05BC1EA81EE3008F057C1F0E0EC5021
:1056D000FE4C0C944E317F5FEE0CFF1C7A3009F0CB
:1056E00033CF0F5F1F4F0830110509F01ECF98AA66
:1056F00099AA1AAA0E94CD108160782F9CAB8BAB1F
:1057000048A959A96AA98CA90E94A42544CF20912F
:105710001401239D900111242417350708F068CF48
:105720009F5F90932E0202C09F3FD1F7EE2059F069
:105730000E9448079FEF1E140CF491E0899F802D72
:10574000112480933602FF2059F00E9448079FEFF2
:105750001F140CF491E0899F802D1124809337024F
:1057600030913602332309F443CF209137022223AC
:1057700009F43ECF45EB3403C0011124992359F0BD
:105780009093360245EB240390011124332331F02A
:10579000309337022DCF80923602F4CF80923702B9
:1057A00027CF20911001239D900111242417350744
:1057B00008F033CF9F5F90932D0202C09F3FD1F737
:1057C000002359F00E940F079FEF10160CF491E090
:1057D000899F802D112480933802112359F00E9453
:1057E0000F079FEF11160CF491E0899F802D112473
:1057F0008093390230913802332309F40ECF20917F
:105800003902222309F409CF45EB3403C0011124E6
:10581000992359F09093380245EB24039001112409
:10582000332331F030933902F8CE80923802F4CF2E
:1058300080923902F2CE8091F100F80181938F01BC
:10584000F1E0EF1AF10809F421CF8091E80085FD1D
:10585000F2CF8091E8008B778093E8000E942C04BF
:10586000882399F313CF8C3009F4CBC048F58430EA
:1058700009F4AEC050F4823009F465C008F099C054
:10588000813009F45CC0998278C0863009F4B6C0D2
:1058900008F4A9C08B30B9F780919C0290919D02C9
:1058A000892B09F46AC0C2010E9487042FEF31EEF0
:1058B00044E0215030404040E1F700C00000F7CD07
:1058C000803109F4CBC078F58E3009F4A0C008F41B
:1058D0009BC080919C0290919D02892B09F44DC040
:1058E0000C8110E00D31110508F047C0EA80FB8003
:1058F000FE24EF24FE246201040D151DC701875903
:105900009C4F0C151D05C9F137E9E316F10420F48D
:10591000F60164810E949231FFEFCF1ADF0A2FEF68
:10592000E21AF20AEBCF823109F49DC008F499C063
:10593000833109F4BFC08E3F09F0A5CFC3CE1A82D0
:1059400089E08B831AC08A81823009F404C38330D2
:10595000C1F0813009F097CF2FB7F89460912D04F2
:1059600070912E0480912F04909130042FBF0E94DB
:1059700054316B837C838D839E83C2010E94870494
:10598000BFCD80919C0290919D02892BB1F3D201F1
:10599000EDE1F2E080819181329612969C9312970C
:1059A00013968C931397129622E0ED32F20791F73B
:1059B000E4CF8A81823009F066CF6B817C818D8152
:1059C0009E810E94543186E290E00E949231D5CFB0
:1059D0004C816B818A810E94EC0B9827892798273C
:1059E0009E838D83CACF2D813E8132272327322784
:1059F0004C816B818A810E944C0DBFCF0E94B30DF8
:105A0000BCCF80E18A83B9CF1A8287E99ACF0C8113
:105A100010E00D31110508F0B0CFEA80FB80FE24C4
:105A2000EF24FE246201040D151DC70187599C4F08
:105A30000C151D0509F4A1CF37E9E316F10458F45C
:105A40000E948431F6018483FFEFEF1AFF0A2FEFE3
:105A5000C21AD20AEACFF6011482F6CF0E943C0D98
:105A60008CCF84E0CFCF0C8110E00D31110508F010
:105A700084CFEA80FB80FE24EF24FE246201040D23
:105A8000151DC7018796C016D10609F476CF30E8F8
:105A9000E31632E0F30658F40E948431F601848361
:105AA000FFEFEF1AFF0A2FEFC21AD20AEACFF60170
:105AB0001482F6CFEC80F12C3DE1E316F10408F0FE
:105AC0005CCF0A811B81102701271027003842E094
:105AD000140708F052CF80E892E0801B910B8E15DE
